:100000000C9400010C944A010C941D010C941D01E8
:100010000C941D010C941D010C941D010C941D01E8
:100020000C941D010C941D010C941D010C941D01D8
:100030000C941D010C941D010C941D010C941D01C8
:100040000C941D010C941D010C941D010C941D01B8
:100050000C941D010C941D010C941D010C941D01A8
:100060000C941D010C941D010C941D010C941D0198
:100070000C941D010C941D010C941D010C941D0188
:100080000C941D010C941D010C941D010C941D0178
:100090000C941D010C941D010C941D010C941D0168
:1000A0000C941D010C941D010C941D010C941D0158
:1000B0000C941D010C941D010C941D010C941D0148
:1000C0000C941D010C941D010C941D010C941D0138
:1000D0000C941D010C941D010C941D010C941D0128
:1000E0000C941D010C941D010C94F6010C941D013F
:1000F0000C941D010C941D010C941D010C941D0108
:100100000C941D010C941D010C941D010C941D01F7
:100110000C941D010C941D010C941D010C941D01E7
:100120000C941D010C941D010C941D010C941D01D7
:100130000C941D010C941D010C941D010C941D01C7
:100140000C941D010C941D010C941D010C941D01B7
:100150000C941D010C941D010C941D010C941D01A7
:100160000C941D010C941D010C941D010C941D0197
:100170000C941D010C941D010C941D010C941D0187
:100180000C941D010C941D010C941D010C941D0177
:100190000C941D010C941D010C941D010C941D0167
:1001A0000C941D010C941D010C941D010C941D0157
:1001B0000C941D010C941D010C941D010C941D0147
:1001C0000C941D010C941D010C941D010C941D0137
:1001D0000C941D010C941D010C941D010C941D0127
:1001E0000C941D010C941D010C941D010C941D0117
:1001F0000C941D010C941D010C941D011C02250280
:1002000011241FBECFEFCDBFDFE2DEBF21E2A0E0B1
:10021000B0E201C01D92A630B207E1F710E0CFEFC7
:10022000D0E004C02197FE010E940203CE3FD10717
:10023000C9F70E94E3010C9408030C9400002FB747
:10024000E0E5F0E08BE482838081886080838181B7
:1002500083FFFDCFE0E4F0E08181807898ED94BFEA
:1002600081838081887F836094BF8083E0E5F0E0B4
:100270008081887E8083A0EBB0E014968C911497E7
:10028000807F14968C9383818A7F816094BF83835F
:100290002FBF08951F920F920FB60F9211248F93C4
:1002A000EF93FF938091530081FF05C0E0E5F0E0FC
:1002B000838182608383FF91EF918F910F900FBEB6
:1002C0000F901F901895E0E8F1E0108211821282E1
:1002D0001382148215821682178280858078808727
:1002E00011868285807882871386848580788487CA
:1002F000158616861786E0EBF0E084818F7C848378
:100300008681887F8683089580E090E20E94F702CC
:10031000882309F457C080E090E20E94E10288340B
:1003200021F568E480E090E20E94DA0265E680E070
:1003300090E20E94DA026CE680E090E20E94DA022B
:100340006CE680E090E20E94DA026FE680E090E2E4
:100350000E94DA026DE080E090E20E94DA026AE038
:1003600080E090E20E94DA02089565E580E090E284
:100370000E94DA026EE680E090E20E94DA026BE60A
:1003800080E090E20E94DA026EE680E090E20E9455
:10039000DA026FE680E090E20E94DA0267E780E02E
:1003A00090E20E94DA026EE680E090E20E94DA02B9
:1003B0006DE080E090E20E94DA026AE080E090E284
:1003C0000E94DA020895F894E0EAF0E082818873EE
:1003D000816082830E941F010E9463010E942A02A1
:1003E0000E94850278940E948401FDCF1F920F9293
:1003F0000FB60F9211242F933F934F935F936F93F8
:100400007F938F939F93AF93BF93EF93FF9380E07E
:1004100090E20E94BF02FF91EF91BF91AF919F9137
:100420008F917F916F915F914F913F912F910F909D
:100430000FBE0F901F90189540E856E060EA7AE0F2
:1004400080E090E20E948C02089580E090E20E9499
:10045000BE020895E0E0F6E014821082108A118A4C
:10046000128A138A148A158A168A178A8185807FD0
:10047000818712861386E0E2F6E014821082108AE9
:10048000118A128A138A8185807F8187128613865A
:10049000E0E4F6E014821082108A118A128A138A2C
:1004A000148A158A168A178A16868185807F818725
:1004B00012861386E0E6F6E014821082108A118A12
:1004C000128A138A148A158A168A178A8185807F70
:1004D000818712861386E0E8F6E088E084838083D3
:1004E000108A118A128A138A8185807F81871286F9
:1004F0001386E0EEF7E014821082108A118A81855B
:10050000807F8187128613860895E0EBF0E080E11A
:10051000828382E383830895FC0160837183428335
:10052000538388E0DA0115968C93A081B18183E032
:1005300015968C93A081B18113968C911397807C32
:10054000806113968C93A081B18187E116968C937C
:10055000A081B18180E117968C93A081B18114961E
:100560008C911497807E886114968C93DF01AC5F28
:10057000BE4F1C92EB5FFE4F108208950895DC0180
:10058000ED91FC911197218122239CF42C7189F427
:100590005081FC01EC5FFE4F20812F5F319640813E
:1005A000421739F031973081A30FB11D14965C9337
:1005B00020830895DC01ED91FC91818185FD6083AC
:1005C0000895FC01EB5FFE4F308131972081321797
:1005D00061F031962081DC01A20FB11D14964C917F
:1005E00020812F5F2083842F08958FEF0895FC01D1
:1005F000EC5FFE4F20813196908181E0291301C08C
:1006000080E00895EE0FFF1F0590F491E02D09940E
:1006100011E0CFEFD0E004C0FE010E94020321965A
:0A062000C030D107C9F7F894FFCFEE
:00000001FF
