:100000000C9400010C94AF010C9428010C9428016D
:100010000C9428010C9428010C9428010C942801BC
:100020000C9428010C9428010C9428010C942801AC
:100030000C9428010C9428010C9428010C9428019C
:100040000C9428010C9428010C9428010C9428018C
:100050000C9428010C9428010C9428010C9428017C
:100060000C9428010C9428010C9428010C9428016C
:100070000C9428010C9428010C9428010C9428015C
:100080000C9428010C9428010C9428010C9428014C
:100090000C9428010C9428010C9428010C9428013C
:1000A0000C9428010C9428010C9428010C9428012C
:1000B0000C9428010C9428010C9428010C9428011C
:1000C0000C9428010C9428010C9428010C9428010C
:1000D0000C9428010C9428010C9428010C942801FC
:1000E0000C9428010C9428010C943A020C942801D9
:1000F0000C9460020C9428010C9428010C942801A3
:100100000C9428010C9428010C9428010C942801CB
:100110000C9428010C9428010C9428010C942801BB
:100120000C9428010C9428010C9428010C942801AB
:100130000C9428010C9428010C9428010C9428019B
:100140000C9428010C9428010C9428010C9428018B
:100150000C9428010C9428010C9428010C9428017B
:100160000C9428010C9428010C9428010C9428016B
:100170000C9428010C9428010C9428010C9428015B
:100180000C9428010C9428010C9428010C9428014B
:100190000C9428010C9428010C9428010C9428013B
:1001A0000C9428010C9428010C9428010C9428012B
:1001B0000C9428010C9428010C9428010C9428011B
:1001C0000C9428010C9428010C9428010C9428010B
:1001D0000C9428010C9428010C9428010C942801FB
:1001E0000C9428010C9428010C9428010C942801EB
:1001F0000C9428010C9428010C9428018602A90271
:1002000011241FBECFEFCDBFDFE2DEBF10E2A0E0C2
:10021000B0E2E6E2F8E102C005900D92AA31B10722
:10022000D9F720E2AAE1B0E201C01D92A633B207DD
:10023000E1F710E0CFEFD0E004C02197FE010E946B
:10024000CF08CE3FD107C9F70E9427020C94060CB5
:100250000C940000CF93DF93EC01CB016E837F837E
:100260000E94E50A88839983DF91CF910895FC016C
:10027000428153812481358181E04217530709F07F
:1002800080E00895FC01F89482819381A081B1817E
:10029000A80FB91F6C9382819381268137810196C3
:1002A000B9010E94BB088283938342815381848178
:1002B00095814817590741F4848195810196B901C8
:1002C0000E94BB088483958378940895FC01228161
:1002D00033818481958128173907A1F0F8948481AE
:1002E0009581A081B181A80FB91F2C91848195813E
:1002F0000196668177810E94BB08848395837894F8
:10030000822F089580E008952FB7E0E5F0E08BE4B8
:100310008283808188608083818183FFFDCFE0E4D8
:10032000F0E08181807898ED94BF81838081887F1F
:10033000836094BF8083E0E5F0E08081887E8083E5
:10034000A0EBB0E014968C911497807F14968C9358
:1003500083818A7F816094BF83832FBF08951F921A
:100360000F920FB60F9211248F93EF93FF9380910A
:10037000530081FF05C0E0E5F0E083818260838364
:10038000FF91EF918F910F900FBE0F901F901895D6
:10039000E0E8F1E010821182128213821482158249
:1003A0001682178280858078808711868285807882
:1003B00082871386848580788487158616861786BB
:1003C000E0EBF0E084818F7C84838681887F868364
:1003D000089569E486E290E20E949F086EE686E254
:1003E00090E20E949F0869E686E290E20E949F08E0
:1003F00064E786E290E20E949F086DE086E290E268
:100400000E949F086AE086E290E20E949F0861E4F1
:100410008AE190E20E949F0864E58AE190E20E94EE
:100420009F086DE08AE190E20E949F088AE190E2D5
:100430000E94B308882351F08AE190E20E94AD083F
:10044000682F86E290E20E949F08F0CF0895F8940A
:10045000E0EAF0E082818873816082830E948401F7
:100460000E94C8010E94B2020E940D0378940E946B
:10047000E901FDCF1F920F920FB60F9211242F9317
:100480003F934F935F936F937F938F939F93AF931C
:10049000BF93EF93FF9386E290E20E947608FF916C
:1004A000EF91BF91AF919F918F917F916F915F91EC
:1004B0004F913F912F910F900FBE0F901F90189565
:1004C0001F920F920FB60F9211242F933F934F93C9
:1004D0005F936F937F938F939F93AF93BF93EF93AC
:1004E000FF9386E290E20E948608FF91EF91BF9110
:1004F000AF919F918F917F916F915F914F913F91BC
:100500002F910F900FBE0F901F901895EF92FF92B2
:100510000F931F9318E1E12E15E9F12E00E710E08B
:1005200020E032EC41E050E060EA7AE086E290E2DE
:100530000E94140320E032EC41E050E060EA78E0F1
:100540008AE190E20E9414031F910F91FF90EF90B7
:1005500008958AE190E20E94600886E290E20E949B
:1005600060080895E0E0F6E014821082108A118A93
:10057000128A138A148A158A168A178A8185807FBF
:10058000818712861386E0E2F6E014821082108AD8
:10059000118A128A138A8185807F81871286138649
:1005A000E0E4F6E014821082108A118A128A138A1B
:1005B000148A158A168A178A16868185807F818714
:1005C00012861386E0E6F6E014821082108A118A01
:1005D000128A138A148A158A168A178A8185807F5F
:1005E000818712861386E0E8F6E088E084838083C2
:1005F000108A118A128A138A8185807F81871286E8
:100600001386E0EEF7E014821082108A118A818549
:10061000807F8187128613860895E0EBF0E080E109
:10062000828382E3838308952F923F924F925F9259
:100630006F927F928F929F92AF92BF92CF92DF92F2
:10064000EF92FF920F931F93CF93DF93CDB7DEB757
:100650002897CDBFDEBF8F83988729013A01DC013F
:100660006D937C93E6E0F0E22AE130E280819181B3
:100670006817790741F482819381AF81B88512961A
:100680008D939C9313973496E217F30779F74114EF
:1006900051046104710451F480E092ECA1E0B0E0F7
:1006A000EF81F88584839583A683B783F894AF811F
:1006B000B8851296ED91FC91139788E08583ED91B2
:1006C000FC91119783E08583ED91FC9111978381D3
:1006D000807C84618383ED91FC91ED83FE83C8016E
:1006E000B7010E94EA094B015C01C301B2010E94FB
:1006F000EA092B013C0120E030E040E851E40E948F
:10070000780A9B01AC01C501B4010E9442096983CA
:100710007A838B839C8320E030E040E85FE30E9493
:10072000D5086B017C0120E030E040E053E40E94FA
:10073000780A0E94B4091B01611570410CF416C4BB
:1007400020E030E040E852E4C701B6010E94780A98
:100750000E94B409611570410CF4D6C320E030E06A
:1007600040E052E4C701B6010E94780A0E94B40931
:10077000611570410CF4E7C320E030E040E851E43B
:10078000C701B6010E94780A0E94B4096115704140
:100790000CF4D9C320E030E040E051E4C701B601D9
:1007A0000E94780A0E94B409611570410CF4CBC311
:1007B00020E030E040E850E4C701B6010E94780A2A
:1007C0000E94B409611570410CF4BDC3A7019601E4
:1007D000C701B6010E94D6080E94B4096115704194
:1007E0000CF4B1C34EC020E030E040E851E4C70152
:1007F000B6010E94780A0E94B409611570410CF498
:10080000D0C320E030E040E051E4C701B6010E94CF
:10081000780A0E94B409611570410CF4C7C320E046
:1008200030E040E850E4C701B6010E94780A0E9417
:10083000B409611570410CF4BEC3A7019601C7014C
:10084000B6010E94D6080E94B409611570410CF4EB
:10085000B7C369817A818B819C810E94B409CB01E5
:10086000019761E070E08115904114F060E070E064
:10087000072E000C880B990B0E94EC099B01AC0120
:10088000A3C369817A818B819C810E94B4096150E4
:100890007109611570410CF487C020E030E040E040
:1008A00052E4C301B2010E94780A9B01AC01C50168
:1008B000B4010E9442090E94B40961507109611596
:1008C00070410CF476C020E030E040E852E4C3010F
:1008D000B2010E94780A9B01AC01C501B4010E94DB
:1008E00042090E94B40961507109611570410CF40C
:1008F00065C020E030E040E053E4C301B2010E9453
:10090000780A9B01AC01C501B4010E9442090E9412
:10091000B40961507109611570410CF454C020E0B4
:1009200030E040E853E4C301B2010E94780A9B0121
:10093000AC01C501B4010E9442090E94B409615092
:100940007109611570410CF443C020E030E040E0D3
:1009500054E4C301B2010E94780A9B01AC01C501B5
:10096000B4010E9442090E94B409615071096115E5
:1009700070419CF120E030E040E854E4C301B20152
:100980000E94780A9B01AC01C501B4010E94420992
:100990000E94B40961507109611570411CF160E059
:1009A00070E080E095E422C060E070E080E891E4CF
:1009B0001DC060E070E080E092E418C060E070E08C
:1009C00080E892E413C060E070E080E093E40EC041
:1009D00060E070E080E893E409C060E070E080E0EF
:1009E00094E404C060E070E080E894E4A301920124
:1009F0000E94780A9B01AC01C501B4010E94420922
:100A00000E94B4098FEF860FAD81BE8116968C933C
:100A1000EF81F885008111810EC020E030E040E8D0
:100A200052E4C701B6010E94780A0E94B409611518
:100A300070410CF459C120E030E040E052E4C701BD
:100A4000B6010E94780A0E94B409611570410CF445
:100A5000DDC220E030E040E851E4C701B6010E9469
:100A6000780A0E94B409611570410CF4D4C220E0E8
:100A700030E040E051E4C701B6010E94780A0E94CC
:100A8000B409611570410CF4CBC220E030E040E8BD
:100A900050E4C701B6010E94780A0E94B4096115AA
:100AA00070410CF4C2C2A7019601C701B6010E94B1
:100AB000D6080E94B409611570410CF4BBC269816B
:100AC0007A818B819C810E94B40961507109611502
:100AD00070410CF4B4C220E030E040E052E4C301C5
:100AE000B2010E94780A9B01AC01C501B4010E94C9
:100AF00042090E94B40961507109611570410CF4FA
:100B0000A0C220E030E040E852E4C301B2010E94FC
:100B1000780A9B01AC01C501B4010E9442090E9400
:100B2000B40961507109611570410CF48EC220E066
:100B300030E040E053E4C301B2010E94780A9B0117
:100B4000AC01C501B4010E9442090E94B409615080
:100B50007109611570410CF47CC220E030E040E87E
:100B600053E4C301B2010E94780A9B01AC01C501A4
:100B7000B4010E9442090E94B409615071096115D3
:100B800070410CF46BC220E030E040E054E4C3015B
:100B9000B2010E94780A9B01AC01C501B4010E9418
:100BA00042090E94B40961507109611570410CF449
:100BB00059C220E030E040E854E4C301B2010E9491
:100BC000780A9B01AC01C501B4010E9442090E9450
:100BD000B40961507109611570410CF448C20F2EBF
:100BE000F0E73F2EF02D47C220E030E040E851E42E
:100BF000C701B6010E94780A0E94B40961157041CC
:100C00000CF4F1C120E030E040E051E4C701B6014E
:100C10000E94780A0E94B409611570410CF4E3C186
:100C200020E030E040E850E4C701B6010E94780AB5
:100C30000E94B409611570410CF4D5C1A701960159
:100C4000C701B6010E94D6080E94B409611570411F
:100C50000CF4C9C16CC020E030E040E851E4C701A9
:100C6000B6010E94780A0E94B409611570410CF423
:100C700044C020E030E040E051E4C701B6010E94EA
:100C8000780A0E94B40961157041E4F120E030E077
:100C900040E850E4C701B6010E94780A0E94B409F6
:100CA00061157041A4F1A7019601C701B6010E9428
:100CB000D6080E94B4096115704174F169817A8186
:100CC0008B819C810E94B409CB01019761E070E0A7
:100CD0008115904114F060E070E0072E000C880B45
:100CE000990B0E94EC091CC00F2EF0EA3F2EF02D4C
:100CF00060E070E080E892E413C060E070E080E8BB
:100D000091E40EC060E070E080E091E409C060E032
:100D100070E080E890E404C060E070E080E090E47F
:100D2000A70196010E94780A0E94B409C3C0698194
:100D30007A818B819C810E94B4096150710961158F
:100D400070410CF487C020E030E040E052E4C30181
:100D5000B2010E94780A9B01AC01C501B4010E9456
:100D600042090E94B40961507109611570410CF487
:100D700076C020E030E040E852E4C301B2010E94B6
:100D8000780A9B01AC01C501B4010E9442090E948E
:100D9000B40961507109611570410CF465C020E01F
:100DA00030E040E053E4C301B2010E94780A9B01A5
:100DB000AC01C501B4010E9442090E94B40961500E
:100DC0007109611570410CF454C020E030E040E836
:100DD00053E4C301B2010E94780A9B01AC01C50132
:100DE000B4010E9442090E94B40961507109611561
:100DF00070410CF443C020E030E040E054E4C30113
:100E0000B2010E94780A9B01AC01C501B4010E94A5
:100E100042090E94B40961507109611570419CF149
:100E200020E030E040E854E4C301B2010E94780AB7
:100E30009B01AC01C501B4010E9442090E94B409A2
:100E400061507109611570411CF160E070E080E053
:100E500095E422C060E070E080E891E41DC060E0AD
:100E600070E080E092E418C060E070E080E892E416
:100E700013C060E070E080E093E40EC060E070E0DA
:100E800080E893E409C060E070E080E094E404C08E
:100E900060E070E080E894E4A30192010E94780A87
:100EA0009B01AC01C501B4010E9442090E94B40932
:100EB00061507109372AD80117963C92AF81B885E5
:100EC000ED91FC918481807E88618483789488E0B0
:100ED00090E00E94E50A8C0160E071E00E942A0126
:100EE000EF81F8850087118788E090E00E94E50A8D
:100EF0008C0160E071E00E942A01AF81B8851A96EA
:100F00000D931C931B97C6C020E030E040E852E4EC
:100F1000C701B6010E94780A0E94B409ED81FE81E2
:100F20006683AF81B8850D911C912114B0E13B0619
:100F30000CF073CD0F2EF0E93F2EF02D60E070E045
:100F400080E093E4EDCE20E030E040E052E4C701E1
:100F5000B6010E94780A0E94B409611570410CF034
:100F600042CC20E030E040E052E42EC020E030E00F
:100F700040E053E4C701B6010E94780A0E94B40918
:100F8000AD81BE8116966C93EF81F8850081118149
:100F90000F2EF0E93F2EF02D60E070E080E093E44A
:100FA000BFCE20E030E040E851E40EC020E030E069
:100FB00040E051E409C020E030E040E850E404C0E3
:100FC00020E030E040E050E4C701B6010E94780A1A
:100FD0000E94B409AD81BE8116966C93EF81F885AD
:100FE000008111811ACD20E030E040E052E4C701D9
:100FF000B6010E94780A0E94B409611570410CF094
:101000002ACE60E070E080E092E48ACE0F2EF0EB12
:101010003F2EF02D30C00F2EF0EC3F2EF02D2BC0C8
:101020000F2EF0ED3F2EF02D26C00F2EF0EE3F2EAE
:10103000F02D21C00F2EF0EF3F2EF02D1CC0312CD3
:101040001AC06894332434F816C06894332435F8F1
:1010500012C00F2EF0E33F2EF02D0DC06894332404
:1010600036F809C00F2EF0E53F2EF02D04C00F2EEC
:10107000F0E63F2EF02D20E030E040E052E4C701E2
:10108000B6010E94780A0E94B409611570410CF4FF
:10109000AACFAACD2896CDBFDEBFDF91CF911F91F9
:1010A0000F91FF90EF90DF90CF90BF90AF909F9007
:1010B0008F907F906F905F904F903F902F9008950A
:1010C000CF93DF93EC01888199810E947D0B8A8107
:1010D0009B810E947D0B888599850E947D0B8A8566
:1010E0009B850E947D0BDF91CF910895FC01A0812B
:1010F000B18111969C91119799233CF49C7129F42C
:101100006C91808591850E9442010895CF93DF9371
:10111000DC01ED91FC91218126FF0EC0EC018A8556
:101120009B850E943701811107C08A859B850E949B
:101130006601E881F9818083DF91CF910895DC0118
:10114000ED91FC91218125FD06C0FC0182859385EE
:101150000E944201089560830895FC018085918575
:101160000E9466010895FC01808591850E943701E7
:1011700091E089270895AA1BBB1B51E107C0AA1F54
:10118000BB1FA617B70710F0A61BB70B881F991F28
:101190005A95A9F780959095BC01CD010895EE0F61
:1011A000FF1F0590F491E02D09945058BB27AA2702
:1011B0000E94ED080C943E0A0E94300A38F00E940A
:1011C000370A20F039F49F3F19F426F40C942D0AC5
:1011D0000EF4E095E7FB0C94270AE92F0E944F0AD2
:1011E00058F3BA17620773078407950720F079F45C
:1011F000A6F50C94710A0EF4E0950B2EBA2FA02DD3
:101200000B01B90190010C01CA01A0011124FF27B3
:10121000591B99F0593F50F4503E68F11A16F040AE
:10122000A22F232F342F4427585FF3CF46953795AD
:101230002795A795F0405395C9F77EF41F16BA0B72
:10124000620B730B840BBAF09150A1F0FF0FBB1F20
:10125000661F771F881FC2F70EC0BA0F621F731F69
:10126000841F48F4879577956795B795F7959E3FC6
:1012700008F0B0CF9395880F08F09927EE0F979557
:10128000879508950E9456090C943E0A0E94370AD9
:1012900058F00E94300A40F029F45F3F29F00C9486
:1012A000270A51110C94720A0C942D0A0E944F0ABD
:1012B00068F39923B1F3552391F3951B550BBB2785
:1012C000AA2762177307840738F09F5F5F4F220FCA
:1012D000331F441FAA1FA9F335D00E2E3AF0E0E8C1
:1012E00032D091505040E695001CCAF72BD0FE2F0B
:1012F00029D0660F771F881FBB1F2617370748079F
:10130000AB07B0E809F0BB0B802DBF01FF27935856
:101310005F4F3AF09E3F510578F00C94270A0C94E9
:10132000720A5F3FE4F3983ED4F38695779567950C
:10133000B795F7959F5FC9F7880F911D969587958B
:1013400097F90895E1E0660F771F881FBB1F6217AA
:1013500073078407BA0720F0621B730B840BBA0B68
:10136000EE1F88F7E09508950E94BB096894B111BB
:101370000C94720A08950E94570A88F09F5798F0BB
:10138000B92F9927B751B0F0E1F0660F771F881F8A
:10139000991F1AF0BA95C9F714C0B13091F00E94A4
:1013A000710AB1E008950C94710A672F782F88278D
:1013B000B85F39F0B93FCCF3869577956795B395CB
:1013C000D9F73EF490958095709561957F4F8F4F3A
:1013D0009F4F0895E89409C097FB3EF4909580953F
:1013E000709561957F4F8F4F9F4F9923A9F0F92FEB
:1013F00096E9BB279395F695879577956795B79569
:10140000F111F8CFFAF4BB0F11F460FF1BC06F5F4E
:101410007F4F8F4F9F4F16C0882311F096E911C060
:10142000772321F09EE8872F762F05C0662371F081
:1014300096E8862F70E060E02AF09A95660F771F95
:10144000881FDAF7880F9695879597F9089597F989
:101450009F6780E870E060E008959FEF80EC08955A
:1014600000240A9416161706180609060895002483
:101470000A9412161306140605060895092E0394FD
:10148000000C11F4882352F0BB0F40F4BF2B11F471
:1014900060FF04C06F5F7F4F8F4F9F4F089557FDD0
:1014A0009058440F551F59F05F3F71F04795880FD2
:1014B00097FB991F61F09F3F79F087950895121669
:1014C00013061406551FF2CF4695F1DF08C0161615
:1014D00017061806991FF1CF8695710561050894C6
:1014E0000895E894BB2766277727CB0197F90895DD
:1014F0000E948B0A0C943E0A0E94300A38F00E9427
:10150000370A20F0952311F00C94270A0C942D0A29
:1015100011240C94720A0E944F0A70F3959FC1F334
:10152000950F50E0551F629FF001729FBB27F00D91
:10153000B11D639FAA27F00DB11DAA1F649F6627E6
:10154000B00DA11D661F829F2227B00DA11D621F35
:10155000739FB00DA11D621F839FA00D611D221FEF
:10156000749F3327A00D611D231F849F600D211DD3
:10157000822F762F6A2F11249F5750409AF0F1F056
:1015800088234AF0EE0FFF1FBB1F661F771F881FBF
:1015900091505040A9F79E3F510580F00C94270AC6
:1015A0000C94720A5F3FE4F3983ED4F386957795E6
:1015B0006795B795F795E7959F5FC1F7FE2B880F65
:1015C000911D9695879597F908950F931F93CF9343
:1015D000DF938230910510F482E090E0E0913420B6
:1015E000F091352020E030E0A0E0B0E0309719F134
:1015F000408151810281138148175907C8F084172F
:10160000950769F4109731F012960C931297139680
:101610001C9327C0009334201093352022C021153D
:10162000310519F04217530718F49A01BD01EF0173
:10163000DF01F801DBCF21153105F9F0281B390B4B
:101640002430310580F48A819B816115710521F078
:10165000FB018283938304C08093342090933520D0
:10166000FE01329644C0FE01E20FF31F8193919375
:1016700022503109288339833AC020913220309199
:101680003320232B41F4209102203091032020931A
:1016900032203093332020910020309101202115F9
:1016A000310541F42DB73EB74091042050910520FB
:1016B000241B350BE0913220F0913320E217F30721
:1016C000A0F42E1B3F0B2817390778F0AC014E5FB2
:1016D0005F4F2417350748F04E0F5F1F40933220AD
:1016E000509333208193919302C0E0E0F0E0CF016A
:1016F000DF91CF911F910F910895CF93DF930097C2
:1017000009F481C0FC01329712821382A091342027
:10171000B0913520109781F420813181820F931F81
:1017200020913220309133202817390751F5E0936A
:101730003220F093332067C0ED0120E030E0CE1777
:10174000DF0740F44A815B819E0141155105F1F0AC
:10175000EA01F5CFC283D38340815181840F951F65
:10176000C817D90759F488819981840F951F02966B
:10177000808391838A819B818283938321153105A4
:1017800029F4E0933420F09335203DC0E901EA8349
:10179000FB8349915991C40FD51FEC17FD0761F4E4
:1017A00080819181840F951F0296E9018883998336
:1017B000828193818A839B83E0E0F0E012968D9191
:1017C0009C911397009719F0FD01DC01F7CF8D91E3
:1017D0009C9111979D012E5F3F4F820F931F209187
:1017E0003220309133202817390769F4309729F4D3
:1017F000109234201092352002C012821382A093DE
:101800003220B0933320DF91CF91089511E0CFEFD4
:10181000D0E004C0FE010E94CF082196C030D1075D
:06182000C9F7F894FFCFA8
:10182600000036202000A0084006B0084006A00AA6
:0A1836008006A0096006B0096006F4
:00000001FF
